:1000000000308A007C280000831608168312081A24
:100010001528A11221088316870083128716A113C1
:10002000210883168700831287178A110A12AB28CA
:10003000233084008313000803192B280230F800B2
:10004000F701F70B2128F80B20289730F700F70B62
:100050002728800B1E2800348316881583128819E0
:100060003A280130A0070230A2009630A3001820E1
:10007000A20B3528200B792883168601F9308312CC
:1000800086000230A2009630A3001820A20B43285D
:1000900083168601B030831286000230A2009630AB
:1000A000A3001820A20B4F288316860192308312DA
:1000B00086000230A2009630A3001820A20B5B2815
:1000C00083168601F830831286000230A200963033
:1000D000A3001820A20B6728831686019030831294
:1000E00086000230A2009630A3001820A20B7328CD
:1000F000A0018A110A12B128840183131F308305DD
:10010000831603170908C039890003131F129F12B1
:1001100000300317880083128701880189010313C7
:10012000A001FF30A10000308316860087008312F3
:10013000A100FF30831688008601831286010030FB
:10014000A100831687018312870183160816831284
:10015000081AAB2804288316881583128819B12839
:060160002C28A528630015
:04400E00F22CFF3F52
:00000001FF
;PIC16F887
